{
  "_format": "hh-sol-artifact-1",
  "contractName": "Donations",
  "sourceName": "contracts/Donations.sol",
  "abi": [
    {
      "inputs": [],
      "stateMutability": "nonpayable",
      "type": "constructor"
    },
    {
      "anonymous": false,
      "inputs": [
        {
          "indexed": true,
          "internalType": "address",
          "name": "donor",
          "type": "address"
        },
        {
          "indexed": false,
          "internalType": "uint256",
          "name": "amount",
          "type": "uint256"
        }
      ],
      "name": "DonationReceived",
      "type": "event"
    },
    {
      "anonymous": false,
      "inputs": [
        {
          "indexed": true,
          "internalType": "address",
          "name": "admin",
          "type": "address"
        },
        {
          "indexed": false,
          "internalType": "uint256",
          "name": "amount",
          "type": "uint256"
        }
      ],
      "name": "FundsWithdrawn",
      "type": "event"
    },
    {
      "inputs": [],
      "name": "admin",
      "outputs": [
        {
          "internalType": "address",
          "name": "",
          "type": "address"
        }
      ],
      "stateMutability": "view",
      "type": "function"
    },
    {
      "inputs": [],
      "name": "donate",
      "outputs": [],
      "stateMutability": "payable",
      "type": "function"
    },
    {
      "inputs": [
        {
          "internalType": "address",
          "name": "",
          "type": "address"
        }
      ],
      "name": "donorAmounts",
      "outputs": [
        {
          "internalType": "uint256",
          "name": "",
          "type": "uint256"
        }
      ],
      "stateMutability": "view",
      "type": "function"
    },
    {
      "inputs": [
        {
          "internalType": "uint256",
          "name": "",
          "type": "uint256"
        }
      ],
      "name": "donors",
      "outputs": [
        {
          "internalType": "address",
          "name": "donorAddress",
          "type": "address"
        },
        {
          "internalType": "uint256",
          "name": "amount",
          "type": "uint256"
        }
      ],
      "stateMutability": "view",
      "type": "function"
    },
    {
      "inputs": [],
      "name": "getDonors",
      "outputs": [
        {
          "components": [
            {
              "internalType": "address",
              "name": "donorAddress",
              "type": "address"
            },
            {
              "internalType": "uint256",
              "name": "amount",
              "type": "uint256"
            }
          ],
          "internalType": "struct Donations.Donor[]",
          "name": "",
          "type": "tuple[]"
        }
      ],
      "stateMutability": "view",
      "type": "function"
    },
    {
      "inputs": [],
      "name": "getTotalDonations",
      "outputs": [
        {
          "internalType": "uint256",
          "name": "",
          "type": "uint256"
        }
      ],
      "stateMutability": "view",
      "type": "function"
    },
    {
      "inputs": [],
      "name": "totalDonations",
      "outputs": [
        {
          "internalType": "uint256",
          "name": "",
          "type": "uint256"
        }
      ],
      "stateMutability": "view",
      "type": "function"
    },
    {
      "inputs": [
        {
          "internalType": "uint256",
          "name": "_amount",
          "type": "uint256"
        }
      ],
      "name": "withdraw",
      "outputs": [],
      "stateMutability": "nonpayable",
      "type": "function"
    }
  ],
  "bytecode": "0x6080604052348015600f57600080fd5b50336000806101000a81548173ffffffffffffffffffffffffffffffffffffffff021916908373ffffffffffffffffffffffffffffffffffffffff160217905550610ca48061005f6000396000f3fe60806040526004361061007b5760003560e01c806396f300d41161004e57806396f300d41461014f578063de2ed8931461017a578063ed88c68e146101a5578063f851a440146101af5761007b565b80632e1a7d4d146100805780634abfa163146100a9578063777c658f146100e75780637d59639514610112575b600080fd5b34801561008c57600080fd5b506100a760048036038101906100a291906107e8565b6101da565b005b3480156100b557600080fd5b506100d060048036038101906100cb91906107e8565b610383565b6040516100de929190610865565b60405180910390f35b3480156100f357600080fd5b506100fc6103d7565b604051610109919061088e565b60405180910390f35b34801561011e57600080fd5b50610139600480360381019061013491906108d5565b6103e1565b604051610146919061088e565b60405180910390f35b34801561015b57600080fd5b506101646103f9565b60405161017191906109fe565b60405180910390f35b34801561018657600080fd5b5061018f6104b8565b60405161019c919061088e565b60405180910390f35b6101ad6104be565b005b3480156101bb57600080fd5b506101c4610789565b6040516101d19190610a20565b60405180910390f35b60008054906101000a900473ffffffffffffffffffffffffffffffffffffffff1673ffffffffffffffffffffffffffffffffffffffff163373ffffffffffffffffffffffffffffffffffffffff1614610268576040517f08c379a000000000000000000000000000000000000000000000000000000000815260040161025f90610abe565b60405180910390fd5b478111156102ab576040517f08c379a00000000000000000000000000000000000000000000000000000000081526004016102a290610b2a565b60405180910390fd5b60008054906101000a900473ffffffffffffffffffffffffffffffffffffffff1673ffffffffffffffffffffffffffffffffffffffff166108fc829081150290604051600060405180830381858888f19350505050158015610311573d6000803e3d6000fd5b5060008054906101000a900473ffffffffffffffffffffffffffffffffffffffff1673ffffffffffffffffffffffffffffffffffffffff167feaff4b37086828766ad3268786972c0cd24259d4c87a80f9d3963a3c3d999b0d82604051610378919061088e565b60405180910390a250565b6002818154811061039357600080fd5b90600052602060002090600202016000915090508060000160009054906101000a900473ffffffffffffffffffffffffffffffffffffffff16908060010154905082565b6000600154905090565b60036020528060005260406000206000915090505481565b60606002805480602002602001604051908101604052809291908181526020016000905b828210156104af57838290600052602060002090600202016040518060400160405290816000820160009054906101000a900473ffffffffffffffffffffffffffffffffffffffff1673ffffffffffffffffffffffffffffffffffffffff1673ffffffffffffffffffffffffffffffffffffffff1681526020016001820154815250508152602001906001019061041d565b50505050905090565b60015481565b60003411610501576040517f08c379a00000000000000000000000000000000000000000000000000000000081526004016104f890610bbc565b60405180910390fd5b6000600360003373ffffffffffffffffffffffffffffffffffffffff1673ffffffffffffffffffffffffffffffffffffffff16815260200190815260200160002054036105f657600260405180604001604052803373ffffffffffffffffffffffffffffffffffffffff16815260200134815250908060018154018082558091505060019003906000526020600020906002020160009091909190915060008201518160000160006101000a81548173ffffffffffffffffffffffffffffffffffffffff021916908373ffffffffffffffffffffffffffffffffffffffff1602179055506020820151816001015550506106ca565b60005b6002805490508110156106c8573373ffffffffffffffffffffffffffffffffffffffff166002828154811061063157610630610bdc565b5b906000526020600020906002020160000160009054906101000a900473ffffffffffffffffffffffffffffffffffffffff1673ffffffffffffffffffffffffffffffffffffffff16036106bb57346002828154811061069357610692610bdc565b5b906000526020600020906002020160010160008282546106b39190610c3a565b925050819055505b80806001019150506105f9565b505b34600360003373ffffffffffffffffffffffffffffffffffffffff1673ffffffffffffffffffffffffffffffffffffffff16815260200190815260200160002060008282546107199190610c3a565b9250508190555034600160008282546107329190610c3a565b925050819055503373ffffffffffffffffffffffffffffffffffffffff167f264f630d9efa0d07053a31163641d9fcc0adafc9d9e76f1c37c2ce3a558d2c523460405161077f919061088e565b60405180910390a2565b60008054906101000a900473ffffffffffffffffffffffffffffffffffffffff1681565b600080fd5b6000819050919050565b6107c5816107b2565b81146107d057600080fd5b50565b6000813590506107e2816107bc565b92915050565b6000602082840312156107fe576107fd6107ad565b5b600061080c848285016107d3565b91505092915050565b600073ffffffffffffffffffffffffffffffffffffffff82169050919050565b600061084082610815565b9050919050565b61085081610835565b82525050565b61085f816107b2565b82525050565b600060408201905061087a6000830185610847565b6108876020830184610856565b9392505050565b60006020820190506108a36000830184610856565b92915050565b6108b281610835565b81146108bd57600080fd5b50565b6000813590506108cf816108a9565b92915050565b6000602082840312156108eb576108ea6107ad565b5b60006108f9848285016108c0565b91505092915050565b600081519050919050565b600082825260208201905092915050565b6000819050602082019050919050565b61093781610835565b82525050565b610946816107b2565b82525050565b604082016000820151610962600085018261092e565b506020820151610975602085018261093d565b50505050565b6000610987838361094c565b60408301905092915050565b6000602082019050919050565b60006109ab82610902565b6109b5818561090d565b93506109c08361091e565b8060005b838110156109f15781516109d8888261097b565b97506109e383610993565b9250506001810190506109c4565b5085935050505092915050565b60006020820190508181036000830152610a1881846109a0565b905092915050565b6000602082019050610a356000830184610847565b92915050565b600082825260208201905092915050565b7f4f6e6c792061646d696e2063616e2063616c6c20746869732066756e6374696f60008201527f6e00000000000000000000000000000000000000000000000000000000000000602082015250565b6000610aa8602183610a3b565b9150610ab382610a4c565b604082019050919050565b60006020820190508181036000830152610ad781610a9b565b9050919050565b7f496e73756666696369656e742062616c616e6365000000000000000000000000600082015250565b6000610b14601483610a3b565b9150610b1f82610ade565b602082019050919050565b60006020820190508181036000830152610b4381610b07565b9050919050565b7f446f6e6174696f6e20616d6f756e74206d75737420626520677265617465722060008201527f7468616e20300000000000000000000000000000000000000000000000000000602082015250565b6000610ba6602683610a3b565b9150610bb182610b4a565b604082019050919050565b60006020820190508181036000830152610bd581610b99565b9050919050565b7f4e487b7100000000000000000000000000000000000000000000000000000000600052603260045260246000fd5b7f4e487b7100000000000000000000000000000000000000000000000000000000600052601160045260246000fd5b6000610c45826107b2565b9150610c50836107b2565b9250828201905080821115610c6857610c67610c0b565b5b9291505056fea2646970667358221220a55e3822e1885c0e96d04b2836d813abac619f6b0c38eab8300af5392387b99264736f6c634300081c0033",
  "linkReferences": {},
  "deployedLinkReferences": {}
}