{
  "_format": "hh-sol-artifact-1",
  "contractName": "Donations",
  "sourceName": "contracts/Donations.sol",
  "abi": [
    {
      "inputs": [],
      "stateMutability": "nonpayable",
      "type": "constructor"
    },
    {
      "anonymous": false,
      "inputs": [
        {
          "indexed": true,
          "internalType": "address",
          "name": "donor",
          "type": "address"
        },
        {
          "indexed": false,
          "internalType": "uint256",
          "name": "amount",
          "type": "uint256"
        }
      ],
      "name": "DonationReceived",
      "type": "event"
    },
    {
      "anonymous": false,
      "inputs": [
        {
          "indexed": true,
          "internalType": "address",
          "name": "admin",
          "type": "address"
        },
        {
          "indexed": false,
          "internalType": "uint256",
          "name": "amount",
          "type": "uint256"
        }
      ],
      "name": "FundsWithdrawn",
      "type": "event"
    },
    {
      "inputs": [
        {
          "internalType": "string",
          "name": "_keyword",
          "type": "string"
        }
      ],
      "name": "donate",
      "outputs": [],
      "stateMutability": "payable",
      "type": "function"
    },
    {
      "inputs": [
        {
          "internalType": "address",
          "name": "",
          "type": "address"
        }
      ],
      "name": "donorAmounts",
      "outputs": [
        {
          "internalType": "uint256",
          "name": "",
          "type": "uint256"
        }
      ],
      "stateMutability": "view",
      "type": "function"
    },
    {
      "inputs": [
        {
          "internalType": "uint256",
          "name": "",
          "type": "uint256"
        }
      ],
      "name": "donors",
      "outputs": [
        {
          "internalType": "address",
          "name": "donorAddress",
          "type": "address"
        },
        {
          "internalType": "uint256",
          "name": "amount",
          "type": "uint256"
        },
        {
          "internalType": "string",
          "name": "keyword",
          "type": "string"
        },
        {
          "internalType": "uint256",
          "name": "timestamp",
          "type": "uint256"
        }
      ],
      "stateMutability": "view",
      "type": "function"
    },
    {
      "inputs": [],
      "name": "getDonors",
      "outputs": [
        {
          "components": [
            {
              "internalType": "address",
              "name": "donorAddress",
              "type": "address"
            },
            {
              "internalType": "uint256",
              "name": "amount",
              "type": "uint256"
            },
            {
              "internalType": "string",
              "name": "keyword",
              "type": "string"
            },
            {
              "internalType": "uint256",
              "name": "timestamp",
              "type": "uint256"
            }
          ],
          "internalType": "struct Donations.Donor[]",
          "name": "",
          "type": "tuple[]"
        }
      ],
      "stateMutability": "view",
      "type": "function"
    },
    {
      "inputs": [],
      "name": "getTotalDonations",
      "outputs": [
        {
          "internalType": "uint256",
          "name": "",
          "type": "uint256"
        }
      ],
      "stateMutability": "view",
      "type": "function"
    },
    {
      "inputs": [],
      "name": "owner",
      "outputs": [
        {
          "internalType": "address",
          "name": "",
          "type": "address"
        }
      ],
      "stateMutability": "view",
      "type": "function"
    },
    {
      "inputs": [
        {
          "internalType": "uint256",
          "name": "_amount",
          "type": "uint256"
        }
      ],
      "name": "withdraw",
      "outputs": [],
      "stateMutability": "nonpayable",
      "type": "function"
    }
  ],
  "bytecode": "0x6080604052348015600f57600080fd5b50336000806101000a81548173ffffffffffffffffffffffffffffffffffffffff021916908373ffffffffffffffffffffffffffffffffffffffff1602179055506114578061005f6000396000f3fe6080604052600436106100705760003560e01c80637d5963951161004e5780637d596395146101095780638da5cb5b1461014657806396f300d414610171578063b5aebc801461019c57610070565b80632e1a7d4d146100755780634abfa1631461009e578063777c658f146100de575b600080fd5b34801561008157600080fd5b5061009c6004803603810190610097919061097a565b6101b8565b005b3480156100aa57600080fd5b506100c560048036038101906100c0919061097a565b6103a4565b6040516100d59493929190610a87565b60405180910390f35b3480156100ea57600080fd5b506100f361048c565b6040516101009190610ad3565b60405180910390f35b34801561011557600080fd5b50610130600480360381019061012b9190610b1a565b610496565b60405161013d9190610ad3565b60405180910390f35b34801561015257600080fd5b5061015b6104ae565b6040516101689190610b47565b60405180910390f35b34801561017d57600080fd5b506101866104d7565b6040516101939190610cef565b60405180910390f35b6101b660048036038101906101b19190610e46565b610632565b005b60008054906101000a900473ffffffffffffffffffffffffffffffffffffffff1673ffffffffffffffffffffffffffffffffffffffff163373ffffffffffffffffffffffffffffffffffffffff1614610246576040517f08c379a000000000000000000000000000000000000000000000000000000000815260040161023d90610f01565b60405180910390fd5b60008111610289576040517f08c379a000000000000000000000000000000000000000000000000000000000815260040161028090610f93565b60405180910390fd5b478111156102cc576040517f08c379a00000000000000000000000000000000000000000000000000000000081526004016102c390610fff565b60405180910390fd5b60008054906101000a900473ffffffffffffffffffffffffffffffffffffffff1673ffffffffffffffffffffffffffffffffffffffff166108fc829081150290604051600060405180830381858888f19350505050158015610332573d6000803e3d6000fd5b5060008054906101000a900473ffffffffffffffffffffffffffffffffffffffff1673ffffffffffffffffffffffffffffffffffffffff167feaff4b37086828766ad3268786972c0cd24259d4c87a80f9d3963a3c3d999b0d826040516103999190610ad3565b60405180910390a250565b600281815481106103b457600080fd5b90600052602060002090600402016000915090508060000160009054906101000a900473ffffffffffffffffffffffffffffffffffffffff16908060010154908060020180546104039061104e565b80601f016020809104026020016040519081016040528092919081815260200182805461042f9061104e565b801561047c5780601f106104515761010080835404028352916020019161047c565b820191906000526020600020905b81548152906001019060200180831161045f57829003601f168201915b5050505050908060030154905084565b6000600154905090565b60036020528060005260406000206000915090505481565b60008060009054906101000a900473ffffffffffffffffffffffffffffffffffffffff16905090565b60606002805480602002602001604051908101604052809291908181526020016000905b8282101561062957838290600052602060002090600402016040518060800160405290816000820160009054906101000a900473ffffffffffffffffffffffffffffffffffffffff1673ffffffffffffffffffffffffffffffffffffffff1673ffffffffffffffffffffffffffffffffffffffff1681526020016001820154815260200160028201805461058e9061104e565b80601f01602080910402602001604051908101604052809291908181526020018280546105ba9061104e565b80156106075780601f106105dc57610100808354040283529160200191610607565b820191906000526020600020905b8154815290600101906020018083116105ea57829003601f168201915b50505050508152602001600382015481525050815260200190600101906104fb565b50505050905090565b60003411610675576040517f08c379a000000000000000000000000000000000000000000000000000000000815260040161066c906110f1565b60405180910390fd5b6000600360003373ffffffffffffffffffffffffffffffffffffffff1673ffffffffffffffffffffffffffffffffffffffff168152602001908152602001600020540361079c576000429050600260405180608001604052803373ffffffffffffffffffffffffffffffffffffffff16815260200134815260200184815260200183815250908060018154018082558091505060019003906000526020600020906004020160009091909190915060008201518160000160006101000a81548173ffffffffffffffffffffffffffffffffffffffff021916908373ffffffffffffffffffffffffffffffffffffffff16021790555060208201518160010155604082015181600201908161078991906112bd565b5060608201518160030155505050610870565b60005b60028054905081101561086e573373ffffffffffffffffffffffffffffffffffffffff16600282815481106107d7576107d661138f565b5b906000526020600020906004020160000160009054906101000a900473ffffffffffffffffffffffffffffffffffffffff1673ffffffffffffffffffffffffffffffffffffffff16036108615734600282815481106108395761083861138f565b5b9060005260206000209060040201600101600082825461085991906113ed565b925050819055505b808060010191505061079f565b505b34600360003373ffffffffffffffffffffffffffffffffffffffff1673ffffffffffffffffffffffffffffffffffffffff16815260200190815260200160002060008282546108bf91906113ed565b9250508190555034600160008282546108d891906113ed565b925050819055503373ffffffffffffffffffffffffffffffffffffffff167f264f630d9efa0d07053a31163641d9fcc0adafc9d9e76f1c37c2ce3a558d2c52346040516109259190610ad3565b60405180910390a250565b6000604051905090565b600080fd5b600080fd5b6000819050919050565b61095781610944565b811461096257600080fd5b50565b6000813590506109748161094e565b92915050565b6000602082840312156109905761098f61093a565b5b600061099e84828501610965565b91505092915050565b600073ffffffffffffffffffffffffffffffffffffffff82169050919050565b60006109d2826109a7565b9050919050565b6109e2816109c7565b82525050565b6109f181610944565b82525050565b600081519050919050565b600082825260208201905092915050565b60005b83811015610a31578082015181840152602081019050610a16565b60008484015250505050565b6000601f19601f8301169050919050565b6000610a59826109f7565b610a638185610a02565b9350610a73818560208601610a13565b610a7c81610a3d565b840191505092915050565b6000608082019050610a9c60008301876109d9565b610aa960208301866109e8565b8181036040830152610abb8185610a4e565b9050610aca60608301846109e8565b95945050505050565b6000602082019050610ae860008301846109e8565b92915050565b610af7816109c7565b8114610b0257600080fd5b50565b600081359050610b1481610aee565b92915050565b600060208284031215610b3057610b2f61093a565b5b6000610b3e84828501610b05565b91505092915050565b6000602082019050610b5c60008301846109d9565b92915050565b600081519050919050565b600082825260208201905092915050565b6000819050602082019050919050565b610b97816109c7565b82525050565b610ba681610944565b82525050565b600082825260208201905092915050565b6000610bc8826109f7565b610bd28185610bac565b9350610be2818560208601610a13565b610beb81610a3d565b840191505092915050565b6000608083016000830151610c0e6000860182610b8e565b506020830151610c216020860182610b9d565b5060408301518482036040860152610c398282610bbd565b9150506060830151610c4e6060860182610b9d565b508091505092915050565b6000610c658383610bf6565b905092915050565b6000602082019050919050565b6000610c8582610b62565b610c8f8185610b6d565b935083602082028501610ca185610b7e565b8060005b85811015610cdd5784840389528151610cbe8582610c59565b9450610cc983610c6d565b925060208a01995050600181019050610ca5565b50829750879550505050505092915050565b60006020820190508181036000830152610d098184610c7a565b905092915050565b600080fd5b600080fd5b7f4e487b7100000000000000000000000000000000000000000000000000000000600052604160045260246000fd5b610d5382610a3d565b810181811067ffffffffffffffff82111715610d7257610d71610d1b565b5b80604052505050565b6000610d85610930565b9050610d918282610d4a565b919050565b600067ffffffffffffffff821115610db157610db0610d1b565b5b610dba82610a3d565b9050602081019050919050565b82818337600083830152505050565b6000610de9610de484610d96565b610d7b565b905082815260208101848484011115610e0557610e04610d16565b5b610e10848285610dc7565b509392505050565b600082601f830112610e2d57610e2c610d11565b5b8135610e3d848260208601610dd6565b91505092915050565b600060208284031215610e5c57610e5b61093a565b5b600082013567ffffffffffffffff811115610e7a57610e7961093f565b5b610e8684828501610e18565b91505092915050565b7f4f6e6c792061646d696e2063616e2063616c6c20746869732066756e6374696f60008201527f6e00000000000000000000000000000000000000000000000000000000000000602082015250565b6000610eeb602183610a02565b9150610ef682610e8f565b604082019050919050565b60006020820190508181036000830152610f1a81610ede565b9050919050565b7f5769746864726177616c20616d6f756e74206d7573742062652067726561746560008201527f72207468616e207a65726f000000000000000000000000000000000000000000602082015250565b6000610f7d602b83610a02565b9150610f8882610f21565b604082019050919050565b60006020820190508181036000830152610fac81610f70565b9050919050565b7f496e73756666696369656e742062616c616e6365000000000000000000000000600082015250565b6000610fe9601483610a02565b9150610ff482610fb3565b602082019050919050565b6000602082019050818103600083015261101881610fdc565b9050919050565b7f4e487b7100000000000000000000000000000000000000000000000000000000600052602260045260246000fd5b6000600282049050600182168061106657607f821691505b6020821081036110795761107861101f565b5b50919050565b7f446f6e6174696f6e20616d6f756e74206d75737420626520677265617465722060008201527f7468616e20300000000000000000000000000000000000000000000000000000602082015250565b60006110db602683610a02565b91506110e68261107f565b604082019050919050565b6000602082019050818103600083015261110a816110ce565b9050919050565b60008190508160005260206000209050919050565b60006020601f8301049050919050565b600082821b905092915050565b6000600883026111737fffffffffffffffffffffffffffffffffffffffffffffffffffffffffffffffff82611136565b61117d8683611136565b95508019841693508086168417925050509392505050565b6000819050919050565b60006111ba6111b56111b084610944565b611195565b610944565b9050919050565b6000819050919050565b6111d48361119f565b6111e86111e0826111c1565b848454611143565b825550505050565b600090565b6111fd6111f0565b6112088184846111cb565b505050565b5b8181101561122c576112216000826111f5565b60018101905061120e565b5050565b601f8211156112715761124281611111565b61124b84611126565b8101602085101561125a578190505b61126e61126685611126565b83018261120d565b50505b505050565b600082821c905092915050565b600061129460001984600802611276565b1980831691505092915050565b60006112ad8383611283565b9150826002028217905092915050565b6112c6826109f7565b67ffffffffffffffff8111156112df576112de610d1b565b5b6112e9825461104e565b6112f4828285611230565b600060209050601f8311600181146113275760008415611315578287015190505b61131f85826112a1565b865550611387565b601f19841661133586611111565b60005b8281101561135d57848901518255600182019150602085019450602081019050611338565b8683101561137a5784890151611376601f891682611283565b8355505b6001600288020188555050505b505050505050565b7f4e487b7100000000000000000000000000000000000000000000000000000000600052603260045260246000fd5b7f4e487b7100000000000000000000000000000000000000000000000000000000600052601160045260246000fd5b60006113f882610944565b915061140383610944565b925082820190508082111561141b5761141a6113be565b5b9291505056fea26469706673582212206143656475af86f7ef4a86b88a860cec1c88f6c475740c98df9b853a2f9cbb5264736f6c634300081c0033",
  "linkReferences": {},
  "deployedLinkReferences": {}
}